{
  "_format": "hh-sol-artifact-1",
  "contractName": "HoofBloxx",
  "sourceName": "contracts/HoofBloxx.sol",
  "abi": [
    {
      "inputs": [],
      "stateMutability": "nonpayable",
      "type": "constructor"
    },
    {
      "anonymous": false,
      "inputs": [
        {
          "indexed": true,
          "internalType": "address",
          "name": "owner",
          "type": "address"
        },
        {
          "indexed": true,
          "internalType": "address",
          "name": "approved",
          "type": "address"
        },
        {
          "indexed": true,
          "internalType": "uint256",
          "name": "tokenId",
          "type": "uint256"
        }
      ],
      "name": "Approval",
      "type": "event"
    },
    {
      "anonymous": false,
      "inputs": [
        {
          "indexed": true,
          "internalType": "address",
          "name": "owner",
          "type": "address"
        },
        {
          "indexed": true,
          "internalType": "address",
          "name": "operator",
          "type": "address"
        },
        {
          "indexed": false,
          "internalType": "bool",
          "name": "approved",
          "type": "bool"
        }
      ],
      "name": "ApprovalForAll",
      "type": "event"
    },
    {
      "anonymous": false,
      "inputs": [
        {
          "indexed": true,
          "internalType": "address",
          "name": "previousOwner",
          "type": "address"
        },
        {
          "indexed": true,
          "internalType": "address",
          "name": "newOwner",
          "type": "address"
        }
      ],
      "name": "OwnershipTransferred",
      "type": "event"
    },
    {
      "anonymous": false,
      "inputs": [
        {
          "indexed": true,
          "internalType": "address",
          "name": "from",
          "type": "address"
        },
        {
          "indexed": true,
          "internalType": "address",
          "name": "to",
          "type": "address"
        },
        {
          "indexed": true,
          "internalType": "uint256",
          "name": "tokenId",
          "type": "uint256"
        }
      ],
      "name": "Transfer",
      "type": "event"
    },
    {
      "inputs": [
        {
          "internalType": "address",
          "name": "to",
          "type": "address"
        },
        {
          "internalType": "uint256",
          "name": "tokenId",
          "type": "uint256"
        }
      ],
      "name": "approve",
      "outputs": [],
      "stateMutability": "nonpayable",
      "type": "function"
    },
    {
      "inputs": [
        {
          "internalType": "address",
          "name": "owner",
          "type": "address"
        }
      ],
      "name": "balanceOf",
      "outputs": [
        {
          "internalType": "uint256",
          "name": "",
          "type": "uint256"
        }
      ],
      "stateMutability": "view",
      "type": "function"
    },
    {
      "inputs": [],
      "name": "baseURI",
      "outputs": [
        {
          "internalType": "string",
          "name": "",
          "type": "string"
        }
      ],
      "stateMutability": "view",
      "type": "function"
    },
    {
      "inputs": [
        {
          "internalType": "uint256",
          "name": "tokenId",
          "type": "uint256"
        }
      ],
      "name": "burn",
      "outputs": [],
      "stateMutability": "nonpayable",
      "type": "function"
    },
    {
      "inputs": [
        {
          "internalType": "uint256",
          "name": "tokenId",
          "type": "uint256"
        }
      ],
      "name": "getApproved",
      "outputs": [
        {
          "internalType": "address",
          "name": "",
          "type": "address"
        }
      ],
      "stateMutability": "view",
      "type": "function"
    },
    {
      "inputs": [
        {
          "internalType": "address",
          "name": "owner",
          "type": "address"
        },
        {
          "internalType": "address",
          "name": "operator",
          "type": "address"
        }
      ],
      "name": "isApprovedForAll",
      "outputs": [
        {
          "internalType": "bool",
          "name": "",
          "type": "bool"
        }
      ],
      "stateMutability": "view",
      "type": "function"
    },
    {
      "inputs": [
        {
          "internalType": "address",
          "name": "to",
          "type": "address"
        },
        {
          "internalType": "string",
          "name": "tokenURI",
          "type": "string"
        }
      ],
      "name": "mintItem",
      "outputs": [
        {
          "internalType": "uint256",
          "name": "",
          "type": "uint256"
        }
      ],
      "stateMutability": "nonpayable",
      "type": "function"
    },
    {
      "inputs": [],
      "name": "name",
      "outputs": [
        {
          "internalType": "string",
          "name": "",
          "type": "string"
        }
      ],
      "stateMutability": "view",
      "type": "function"
    },
    {
      "inputs": [],
      "name": "owner",
      "outputs": [
        {
          "internalType": "address",
          "name": "",
          "type": "address"
        }
      ],
      "stateMutability": "view",
      "type": "function"
    },
    {
      "inputs": [
        {
          "internalType": "uint256",
          "name": "tokenId",
          "type": "uint256"
        }
      ],
      "name": "ownerOf",
      "outputs": [
        {
          "internalType": "address",
          "name": "",
          "type": "address"
        }
      ],
      "stateMutability": "view",
      "type": "function"
    },
    {
      "inputs": [],
      "name": "renounceOwnership",
      "outputs": [],
      "stateMutability": "nonpayable",
      "type": "function"
    },
    {
      "inputs": [
        {
          "internalType": "address",
          "name": "from",
          "type": "address"
        },
        {
          "internalType": "address",
          "name": "to",
          "type": "address"
        },
        {
          "internalType": "uint256",
          "name": "tokenId",
          "type": "uint256"
        }
      ],
      "name": "safeTransferFrom",
      "outputs": [],
      "stateMutability": "nonpayable",
      "type": "function"
    },
    {
      "inputs": [
        {
          "internalType": "address",
          "name": "from",
          "type": "address"
        },
        {
          "internalType": "address",
          "name": "to",
          "type": "address"
        },
        {
          "internalType": "uint256",
          "name": "tokenId",
          "type": "uint256"
        },
        {
          "internalType": "bytes",
          "name": "_data",
          "type": "bytes"
        }
      ],
      "name": "safeTransferFrom",
      "outputs": [],
      "stateMutability": "nonpayable",
      "type": "function"
    },
    {
      "inputs": [
        {
          "internalType": "address",
          "name": "operator",
          "type": "address"
        },
        {
          "internalType": "bool",
          "name": "approved",
          "type": "bool"
        }
      ],
      "name": "setApprovalForAll",
      "outputs": [],
      "stateMutability": "nonpayable",
      "type": "function"
    },
    {
      "inputs": [
        {
          "internalType": "bytes4",
          "name": "interfaceId",
          "type": "bytes4"
        }
      ],
      "name": "supportsInterface",
      "outputs": [
        {
          "internalType": "bool",
          "name": "",
          "type": "bool"
        }
      ],
      "stateMutability": "view",
      "type": "function"
    },
    {
      "inputs": [],
      "name": "symbol",
      "outputs": [
        {
          "internalType": "string",
          "name": "",
          "type": "string"
        }
      ],
      "stateMutability": "view",
      "type": "function"
    },
    {
      "inputs": [
        {
          "internalType": "uint256",
          "name": "index",
          "type": "uint256"
        }
      ],
      "name": "tokenByIndex",
      "outputs": [
        {
          "internalType": "uint256",
          "name": "",
          "type": "uint256"
        }
      ],
      "stateMutability": "view",
      "type": "function"
    },
    {
      "inputs": [
        {
          "internalType": "address",
          "name": "owner",
          "type": "address"
        },
        {
          "internalType": "uint256",
          "name": "index",
          "type": "uint256"
        }
      ],
      "name": "tokenOfOwnerByIndex",
      "outputs": [
        {
          "internalType": "uint256",
          "name": "",
          "type": "uint256"
        }
      ],
      "stateMutability": "view",
      "type": "function"
    },
    {
      "inputs": [
        {
          "internalType": "uint256",
          "name": "tokenId",
          "type": "uint256"
        }
      ],
      "name": "tokenURI",
      "outputs": [
        {
          "internalType": "string",
          "name": "",
          "type": "string"
        }
      ],
      "stateMutability": "view",
      "type": "function"
    },
    {
      "inputs": [],
      "name": "totalSupply",
      "outputs": [
        {
          "internalType": "uint256",
          "name": "",
          "type": "uint256"
        }
      ],
      "stateMutability": "view",
      "type": "function"
    },
    {
      "inputs": [
        {
          "internalType": "address",
          "name": "from",
          "type": "address"
        },
        {
          "internalType": "address",
          "name": "to",
          "type": "address"
        },
        {
          "internalType": "uint256",
          "name": "tokenId",
          "type": "uint256"
        }
      ],
      "name": "transferFrom",
      "outputs": [],
      "stateMutability": "nonpayable",
      "type": "function"
    },
    {
      "inputs": [
        {
          "internalType": "address",
          "name": "newOwner",
          "type": "address"
        }
      ],
      "name": "transferOwnership",
      "outputs": [],
      "stateMutability": "nonpayable",
      "type": "function"
    }
  ],
  "bytecode": "0x60806040523480156200001157600080fd5b506040805180820182526009815268090dedecc84d8def0f60bb1b60208083019190915282518084019093526002835261242160f11b9083015290620000676301ffc9a760e01b6001600160e01b036200019816565b81516200007c9060069060208501906200023b565b508051620000929060079060208401906200023b565b50620000ae6380ac58cd60e01b6001600160e01b036200019816565b620000c9635b5e139f60e01b6001600160e01b036200019816565b620000e463780e9d6360e01b6001600160e01b036200019816565b5060009050620000fc6001600160e01b036200021d16565b600a80546001600160a01b0319166001600160a01b038316908117909155604051919250906000907f8be0079c531659141344cd1fd0a4f28419497f9722a3daafe3b4186f6b6457e0908290a35060408051808201909152601581527f68747470733a2f2f697066732e696f2f697066732f0000000000000000000000602082015262000192906001600160e01b036200022216565b620002dd565b6001600160e01b03198082161415620001f8576040805162461bcd60e51b815260206004820152601c60248201527f4552433136353a20696e76616c696420696e7465726661636520696400000000604482015290519081900360640190fd5b6001600160e01b0319166000908152602081905260409020805460ff19166001179055565b335b90565b8051620002379060099060208401906200023b565b5050565b828054600181600116156101000203166002900490600052602060002090601f016020900481019282601f106200027e57805160ff1916838001178555620002ae565b82800160010185558215620002ae579182015b82811115620002ae57825182559160200191906001019062000291565b50620002bc929150620002c0565b5090565b6200021f91905b80821115620002bc5760008155600101620002c7565b61224280620002ed6000396000f3fe608060405234801561001057600080fd5b50600436106101425760003560e01c80636352211e116100b857806395d89b411161007c57806395d89b4114610463578063a22cb4651461046b578063b88d4fde14610499578063c87b56dd1461055f578063e985e9c51461057c578063f2fde38b146105aa57610142565b80636352211e146104085780636c0360eb1461042557806370a082311461042d578063715018a6146104535780638da5cb5b1461045b57610142565b806318160ddd1161010a57806318160ddd1461032e57806323b872dd146103365780632f745c591461036c57806342842e0e1461039857806342966c68146103ce5780634f6ccce7146103eb57610142565b806301ffc9a71461014757806306fdde0314610182578063081812fc146101ff578063095ea7b314610238578063110bcd4514610266575b600080fd5b61016e6004803603602081101561015d57600080fd5b50356001600160e01b0319166105d0565b604080519115158252519081900360200190f35b61018a6105f3565b6040805160208082528351818301528351919283929083019185019080838360005b838110156101c45781810151838201526020016101ac565b50505050905090810190601f1680156101f15780820380516001836020036101000a031916815260200191505b509250505060405180910390f35b61021c6004803603602081101561021557600080fd5b503561068a565b604080516001600160a01b039092168252519081900360200190f35b6102646004803603604081101561024e57600080fd5b506001600160a01b0381351690602001356106ec565b005b61031c6004803603604081101561027c57600080fd5b6001600160a01b0382351691908101906040810160208201356401000000008111156102a757600080fd5b8201836020820111156102b957600080fd5b803590602001918460018302840111640100000000831117156102db57600080fd5b91908080601f0160208091040260200160405190810160405280939291908181526020018383808284376000920191909152509295506107c7945050505050565b60408051918252519081900360200190f35b61031c610872565b6102646004803603606081101561034c57600080fd5b506001600160a01b03813581169160208101359091169060400135610883565b61031c6004803603604081101561038257600080fd5b506001600160a01b0381351690602001356108da565b610264600480360360608110156103ae57600080fd5b506001600160a01b03813581169160208101359091169060400135610902565b610264600480360360208110156103e457600080fd5b503561091d565b61031c6004803603602081101561040157600080fd5b503561093c565b61021c6004803603602081101561041e57600080fd5b5035610958565b61018a610986565b61031c6004803603602081101561044357600080fd5b50356001600160a01b03166109e7565b610264610a4f565b61021c610b0d565b61018a610b1c565b6102646004803603604081101561048157600080fd5b506001600160a01b0381351690602001351515610b7d565b610264600480360360808110156104af57600080fd5b6001600160a01b038235811692602081013590911691604082013591908101906080810160608201356401000000008111156104ea57600080fd5b8201836020820111156104fc57600080fd5b8035906020019184600183028401116401000000008311171561051e57600080fd5b91908080601f016020809104026020016040519081016040528093929190818152602001838380828437600092019190915250929550610c82945050505050565b61018a6004803603602081101561057557600080fd5b5035610ce0565b61016e6004803603604081101561059257600080fd5b506001600160a01b0381358116916020013516610f63565b610264600480360360208110156105c057600080fd5b50356001600160a01b0316610f91565b6001600160e01b0319811660009081526020819052604090205460ff165b919050565b60068054604080516020601f600260001961010060018816150201909516949094049384018190048102820181019092528281526060939092909183018282801561067f5780601f106106545761010080835404028352916020019161067f565b820191906000526020600020905b81548152906001019060200180831161066257829003601f168201915b505050505090505b90565b6000610695826110a6565b6106d05760405162461bcd60e51b815260040180806020018281038252602c81526020018061210b602c913960400191505060405180910390fd5b506000908152600460205260409020546001600160a01b031690565b60006106f782610958565b9050806001600160a01b0316836001600160a01b0316141561074a5760405162461bcd60e51b81526004018080602001828103825260218152602001806121bb6021913960400191505060405180910390fd5b806001600160a01b031661075c6110b9565b6001600160a01b0316148061077d575061077d816107786110b9565b610f63565b6107b85760405162461bcd60e51b815260040180806020018281038252603881526020018061205e6038913960400191505060405180910390fd5b6107c283836110bd565b505050565b60006107d16110b9565b6001600160a01b03166107e2610b0d565b6001600160a01b03161461083d576040805162461bcd60e51b815260206004820181905260248201527f4f776e61626c653a2063616c6c6572206973206e6f7420746865206f776e6572604482015290519081900360640190fd5b610847600b61112b565b6000610853600b611134565b905061085f8482611138565b6108698184611272565b90505b92915050565b600061087e60026112d5565b905090565b61089461088e6110b9565b826112e0565b6108cf5760405162461bcd60e51b81526004018080602001828103825260318152602001806121dc6031913960400191505060405180910390fd5b6107c2838383611384565b6001600160a01b0382166000908152600160205260408120610869908363ffffffff6114e216565b6107c283838360405180602001604052806000815250610c82565b61092733826112e0565b61093057600080fd5b610939816114ee565b50565b60008061095060028463ffffffff6115c716565b509392505050565b600061086c826040518060600160405280602981526020016120c0602991396002919063ffffffff6115e316565b60098054604080516020601f600260001961010060018816150201909516949094049384018190048102820181019092528281526060939092909183018282801561067f5780601f106106545761010080835404028352916020019161067f565b60006001600160a01b038216610a2e5760405162461bcd60e51b815260040180806020018281038252602a815260200180612096602a913960400191505060405180910390fd5b6001600160a01b038216600090815260016020526040902061086c906112d5565b610a576110b9565b6001600160a01b0316610a68610b0d565b6001600160a01b031614610ac3576040805162461bcd60e51b815260206004820181905260248201527f4f776e61626c653a2063616c6c6572206973206e6f7420746865206f776e6572604482015290519081900360640190fd5b600a546040516000916001600160a01b0316907f8be0079c531659141344cd1fd0a4f28419497f9722a3daafe3b4186f6b6457e0908390a3600a80546001600160a01b0319169055565b600a546001600160a01b031690565b60078054604080516020601f600260001961010060018816150201909516949094049384018190048102820181019092528281526060939092909183018282801561067f5780601f106106545761010080835404028352916020019161067f565b610b856110b9565b6001600160a01b0316826001600160a01b03161415610beb576040805162461bcd60e51b815260206004820152601960248201527f4552433732313a20617070726f766520746f2063616c6c657200000000000000604482015290519081900360640190fd5b8060056000610bf86110b9565b6001600160a01b03908116825260208083019390935260409182016000908120918716808252919093529120805460ff191692151592909217909155610c3c6110b9565b60408051841515815290516001600160a01b0392909216917f17307eab39ab6107e8899845ad3d59bd9653f200f220920489ca2b5937696c319181900360200190a35050565b610c93610c8d6110b9565b836112e0565b610cce5760405162461bcd60e51b81526004018080602001828103825260318152602001806121dc6031913960400191505060405180910390fd5b610cda848484846115fa565b50505050565b6060610ceb826110a6565b610d265760405162461bcd60e51b815260040180806020018281038252602f81526020018061218c602f913960400191505060405180910390fd5b60008281526008602090815260409182902080548351601f6002600019610100600186161502019093169290920491820184900484028101840190945280845260609392830182828015610dbb5780601f10610d9057610100808354040283529160200191610dbb565b820191906000526020600020905b815481529060010190602001808311610d9e57829003601f168201915b505050505090506060610dcc610986565b9050805160001415610de0575090506105ee565b815115610ea15780826040516020018083805190602001908083835b60208310610e1b5780518252601f199092019160209182019101610dfc565b51815160209384036101000a600019018019909216911617905285519190930192850191508083835b60208310610e635780518252601f199092019160209182019101610e44565b6001836020036101000a03801982511681845116808217855250505050505090500192505050604051602081830303815290604052925050506105ee565b80610eab8561164c565b6040516020018083805190602001908083835b60208310610edd5780518252601f199092019160209182019101610ebe565b51815160209384036101000a600019018019909216911617905285519190930192850191508083835b60208310610f255780518252601f199092019160209182019101610f06565b6001836020036101000a0380198251168184511680821785525050505050509050019250505060405160208183030381529060405292505050919050565b6001600160a01b03918216600090815260056020908152604080832093909416825291909152205460ff1690565b610f996110b9565b6001600160a01b0316610faa610b0d565b6001600160a01b031614611005576040805162461bcd60e51b815260206004820181905260248201527f4f776e61626c653a2063616c6c6572206973206e6f7420746865206f776e6572604482015290519081900360640190fd5b6001600160a01b03811661104a5760405162461bcd60e51b8152600401808060200182810382526026815260200180611fe86026913960400191505060405180910390fd5b600a546040516001600160a01b038084169216907f8be0079c531659141344cd1fd0a4f28419497f9722a3daafe3b4186f6b6457e090600090a3600a80546001600160a01b0319166001600160a01b0392909216919091179055565b600061086c60028363ffffffff61172716565b3390565b600081815260046020526040902080546001600160a01b0319166001600160a01b03841690811790915581906110f282610958565b6001600160a01b03167f8c5be1e5ebec7d5bd14f71427d1e84f3dd0314c0f7b2291e5b200ac8c7c3b92560405160405180910390a45050565b80546001019055565b5490565b6001600160a01b038216611193576040805162461bcd60e51b815260206004820181905260248201527f4552433732313a206d696e7420746f20746865207a65726f2061646472657373604482015290519081900360640190fd5b61119c816110a6565b156111ee576040805162461bcd60e51b815260206004820152601c60248201527f4552433732313a20746f6b656e20616c7265616479206d696e74656400000000604482015290519081900360640190fd5b6111fa600083836107c2565b6001600160a01b0382166000908152600160205260409020611222908263ffffffff61173316565b506112356002828463ffffffff61173f16565b5060405181906001600160a01b038416906000907fddf252ad1be2c89b69c2b068fc378daa952ba7f163c4a11628f55a4df523b3ef908290a45050565b61127b826110a6565b6112b65760405162461bcd60e51b815260040180806020018281038252602c815260200180612137602c913960400191505060405180910390fd5b600082815260086020908152604090912082516107c292840190611ebb565b600061086c82611134565b60006112eb826110a6565b6113265760405162461bcd60e51b815260040180806020018281038252602c815260200180612032602c913960400191505060405180910390fd5b600061133183610958565b9050806001600160a01b0316846001600160a01b0316148061136c5750836001600160a01b03166113618461068a565b6001600160a01b0316145b8061137c575061137c8185610f63565b949350505050565b826001600160a01b031661139782610958565b6001600160a01b0316146113dc5760405162461bcd60e51b81526004018080602001828103825260298152602001806121636029913960400191505060405180910390fd5b6001600160a01b0382166114215760405162461bcd60e51b815260040180806020018281038252602481526020018061200e6024913960400191505060405180910390fd5b61142c8383836107c2565b6114376000826110bd565b6001600160a01b038316600090815260016020526040902061145f908263ffffffff61175516565b506001600160a01b0382166000908152600160205260409020611488908263ffffffff61173316565b5061149b6002828463ffffffff61173f16565b5080826001600160a01b0316846001600160a01b03167fddf252ad1be2c89b69c2b068fc378daa952ba7f163c4a11628f55a4df523b3ef60405160405180910390a4505050565b60006108698383611761565b60006114f982610958565b9050611507816000846107c2565b6115126000836110bd565b600082815260086020526040902054600260001961010060018416150201909116041561155057600082815260086020526040812061155091611f39565b6001600160a01b0381166000908152600160205260409020611578908363ffffffff61175516565b5061158a60028363ffffffff6117c516565b5060405182906000906001600160a01b038416907fddf252ad1be2c89b69c2b068fc378daa952ba7f163c4a11628f55a4df523b3ef908390a45050565b60008080806115d686866117d1565b9097909650945050505050565b60006115f084848461184c565b90505b9392505050565b611605848484611384565b61161184848484611916565b610cda5760405162461bcd60e51b8152600401808060200182810382526032815260200180611fb66032913960400191505060405180910390fd5b60608161167157506040805180820190915260018152600360fc1b60208201526105ee565b8160005b811561168957600101600a82049150611675565b60608167ffffffffffffffff811180156116a257600080fd5b506040519080825280601f01601f1916602001820160405280156116cd576020820181803683370190505b50859350905060001982015b831561171e57600a840660300160f81b828280600190039350815181106116fc57fe5b60200101906001600160f81b031916908160001a905350600a840493506116d9565b50949350505050565b60006108698383611a96565b60006108698383611aae565b60006115f084846001600160a01b038516611af8565b60006108698383611b8f565b815460009082106117a35760405162461bcd60e51b8152600401808060200182810382526022815260200180611f946022913960400191505060405180910390fd5b8260000182815481106117b257fe5b9060005260206000200154905092915050565b60006108698383611c55565b8154600090819083106118155760405162461bcd60e51b81526004018080602001828103825260228152602001806120e96022913960400191505060405180910390fd5b600084600001848154811061182657fe5b906000526020600020906002020190508060000154816001015492509250509250929050565b600082815260018401602052604081205482816118e75760405162461bcd60e51b81526004018080602001828103825283818151815260200191508051906020019080838360005b838110156118ac578181015183820152602001611894565b50505050905090810190601f1680156118d95780820380516001836020036101000a031916815260200191505b509250505060405180910390fd5b508460000160018203815481106118fa57fe5b9060005260206000209060020201600101549150509392505050565b600061192a846001600160a01b0316611d29565b6119365750600161137c565b6060611a5c630a85bd0160e11b61194b6110b9565b88878760405160240180856001600160a01b03166001600160a01b03168152602001846001600160a01b03166001600160a01b0316815260200183815260200180602001828103825283818151815260200191508051906020019080838360005b838110156119c45781810151838201526020016119ac565b50505050905090810190601f1680156119f15780820380516001836020036101000a031916815260200191505b5095505050505050604051602081830303815290604052906001600160e01b0319166020820180516001600160e01b038381831617835250505050604051806060016040528060328152602001611fb6603291396001600160a01b038816919063ffffffff611d2f16565b90506000818060200190516020811015611a7557600080fd5b50516001600160e01b031916630a85bd0160e11b1492505050949350505050565b60009081526001919091016020526040902054151590565b6000611aba8383611a96565b611af05750815460018181018455600084815260208082209093018490558454848252828601909352604090209190915561086c565b50600061086c565b600082815260018401602052604081205480611b5d5750506040805180820182528381526020808201848152865460018181018955600089815284812095516002909302909501918255915190820155865486845281880190925292909120556115f3565b82856000016001830381548110611b7057fe5b90600052602060002090600202016001018190555060009150506115f3565b60008181526001830160205260408120548015611c4b5783546000198083019190810190600090879083908110611bc257fe5b9060005260206000200154905080876000018481548110611bdf57fe5b600091825260208083209091019290925582815260018981019092526040902090840190558654879080611c0f57fe5b6001900381819060005260206000200160009055905586600101600087815260200190815260200160002060009055600194505050505061086c565b600091505061086c565b60008181526001830160205260408120548015611c4b5783546000198083019190810190600090879083908110611c8857fe5b9060005260206000209060020201905080876000018481548110611ca857fe5b600091825260208083208454600290930201918255600193840154918401919091558354825289830190526040902090840190558654879080611ce757fe5b600082815260208082206002600019909401938402018281556001908101839055929093558881528982019092526040822091909155945061086c9350505050565b3b151590565b60606115f0848460008585611d4385611d29565b611d94576040805162461bcd60e51b815260206004820152601d60248201527f416464726573733a2063616c6c20746f206e6f6e2d636f6e7472616374000000604482015290519081900360640190fd5b60006060866001600160a01b031685876040518082805190602001908083835b60208310611dd35780518252601f199092019160209182019101611db4565b6001836020036101000a03801982511681845116808217855250505050505090500191505060006040518083038185875af1925050503d8060008114611e35576040519150601f19603f3d011682016040523d82523d6000602084013e611e3a565b606091505b5091509150611e4a828286611e55565b979650505050505050565b60608315611e645750816115f3565b825115611e745782518084602001fd5b60405162461bcd60e51b81526020600482018181528451602484015284518593919283926044019190850190808383600083156118ac578181015183820152602001611894565b828054600181600116156101000203166002900490600052602060002090601f016020900481019282601f10611efc57805160ff1916838001178555611f29565b82800160010185558215611f29579182015b82811115611f29578251825591602001919060010190611f0e565b50611f35929150611f79565b5090565b50805460018160011615610100020316600290046000825580601f10611f5f5750610939565b601f01602090049060005260206000209081019061093991905b61068791905b80821115611f355760008155600101611f7f56fe456e756d657261626c655365743a20696e646578206f7574206f6620626f756e64734552433732313a207472616e7366657220746f206e6f6e20455243373231526563656976657220696d706c656d656e7465724f776e61626c653a206e6577206f776e657220697320746865207a65726f20616464726573734552433732313a207472616e7366657220746f20746865207a65726f20616464726573734552433732313a206f70657261746f7220717565727920666f72206e6f6e6578697374656e7420746f6b656e4552433732313a20617070726f76652063616c6c6572206973206e6f74206f776e6572206e6f7220617070726f76656420666f7220616c6c4552433732313a2062616c616e636520717565727920666f7220746865207a65726f20616464726573734552433732313a206f776e657220717565727920666f72206e6f6e6578697374656e7420746f6b656e456e756d657261626c654d61703a20696e646578206f7574206f6620626f756e64734552433732313a20617070726f76656420717565727920666f72206e6f6e6578697374656e7420746f6b656e4552433732314d657461646174613a2055524920736574206f66206e6f6e6578697374656e7420746f6b656e4552433732313a207472616e73666572206f6620746f6b656e2074686174206973206e6f74206f776e4552433732314d657461646174613a2055524920717565727920666f72206e6f6e6578697374656e7420746f6b656e4552433732313a20617070726f76616c20746f2063757272656e74206f776e65724552433732313a207472616e736665722063616c6c6572206973206e6f74206f776e6572206e6f7220617070726f766564a2646970667358221220f748f8d929f1ccbc9f49533f5cdb35cd13daca3398f46dcad8dc9cd25f05e00064736f6c63430006070033",
  "linkReferences": {},
  "deployedLinkReferences": {}
}